{
  "contractName": "MyContract",
  "abi": [
    {
      "constant": true,
      "inputs": [
        {
          "internalType": "uint256",
          "name": "",
          "type": "uint256"
        }
      ],
      "name": "items",
      "outputs": [
        {
          "internalType": "uint8",
          "name": "id",
          "type": "uint8"
        },
        {
          "internalType": "string",
          "name": "name",
          "type": "string"
        },
        {
          "internalType": "uint8",
          "name": "price",
          "type": "uint8"
        }
      ],
      "payable": false,
      "stateMutability": "view",
      "type": "function"
    },
    {
      "constant": false,
      "inputs": [
        {
          "internalType": "uint256",
          "name": "_newNumber",
          "type": "uint256"
        }
      ],
      "name": "setNumber",
      "outputs": [],
      "payable": true,
      "stateMutability": "payable",
      "type": "function"
    },
    {
      "constant": true,
      "inputs": [],
      "name": "fetchNumber",
      "outputs": [
        {
          "internalType": "uint256",
          "name": "",
          "type": "uint256"
        }
      ],
      "payable": false,
      "stateMutability": "view",
      "type": "function"
    }
  ],
  "bytecode": "0x6080604052600a60005534801561001557600080fd5b5061030c806100256000396000f3fe6080604052600436106100345760003560e01c80633fb5c1cb146100395780638090b13114610067578063bfb231d214610092575b600080fd5b6100656004803603602081101561004f57600080fd5b8101908080359060200190929190505050610160565b005b34801561007357600080fd5b5061007c6101e5565b6040518082815260200191505060405180910390f35b34801561009e57600080fd5b506100cb600480360360208110156100b557600080fd5b81019080803590602001909291905050506101ee565b604051808460ff1660ff168152602001806020018360ff1660ff168152602001828103825284818151815260200191508051906020019080838360005b83811015610123578082015181840152602081019050610108565b50505050905090810190601f1680156101505780820380516001836020036101000a031916815260200191505b5094505050505060405180910390f35b655af3107a400034146101db576040517f08c379a00000000000000000000000000000000000000000000000000000000081526004018080602001828103825260188152602001807f6c65206d6f6e74616e74206e276573742070617320626f6e000000000000000081525060200191505060405180910390fd5b8060008190555050565b60008054905090565b600181815481106101fb57fe5b90600052602060002090600302016000915090508060000160009054906101000a900460ff1690806001018054600181600116156101000203166002900480601f0160208091040260200160405190810160405280929190818152602001828054600181600116156101000203166002900480156102ba5780601f1061028f576101008083540402835291602001916102ba565b820191906000526020600020905b81548152906001019060200180831161029d57829003601f168201915b5050505050908060020160009054906101000a900460ff1690508356fea265627a7a72315820930b697bb53e5d72ebaff866da932601d08d16bebc604220c4091744ec12891864736f6c63430005100032",
  "source": "    //SPDX-License-Identifier: UNLICENSED\r\n\r\npragma solidity >=0.4.22 <0.9.0;\r\n\r\ncontract MyContract {\r\n    \r\n    uint256 number = 10;\r\n  \r\n    struct Item {\r\n\r\n        uint8 id;\r\n        string name;\r\n        uint8 price;\r\n    }\r\n\r\n    Item[] public items;\r\n\r\n    function setNumber(uint256 _newNumber) external payable {\r\n\r\n        require(msg.value == 0.0001 ether, \"le montant n'est pas bon\");\r\n        number = _newNumber;\r\n\r\n    }\r\n\r\n    function fetchNumber() public view returns (uint256) {\r\n\r\n        return number;\r\n\r\n    }\r\n\r\n}",
  "sourcePath": "C:/Users/gkern/Documents/Ethereum/contracts/MyContract.sol",
  "compiler": {
    "name": "solc",
    "version": "0.5.16+commit.9c3226ce.Emscripten.clang"
  },
  "schemaVersion": "3.3.4",
  "updatedAt": "2021-03-26T07:53:01.035Z",
  "devdoc": {
    "methods": {}
  },
  "userdoc": {
    "methods": {}
  }
}